:020000040800F2
:10000000005000203D5D0008E50F0008E70F0008E4
:10001000E90F0008EB0F0008ED0F000800000000DA
:10002000000000000000000000000000A1430008E4
:10003000EF0F00080000000041440008F10F000825
:10004000855D0008855D0008855D0008855D000808
:10005000855D0008855D0008855D0008855D0008F8
:10006000855D0008855D0008855D000809100008B1
:10007000855D0008855D0008855D0008855D0008D8
:10008000855D0008855D0008855D0008855D0008C8
:10009000855D0008855D0008855D0008855D0008B8
:1000A000855D0008855D0008855D0008855D0008A8
:1000B000855D0008855D0008855D0008855D000898
:1000C000855D0008855D0008855D0008855D000888
:1000D000855D0008855D0008855D0008855D000878
:1000E000855D0008855D0008855D00080000000052
:1000F0000000000000000000000000000000000000
:0C01000000000000000000005FF808F1A3
:1001100081F0004102E000BF83F0004330B54FEAB8
:1001200041044FEA430594EA050F08BF90EA020F25
:100130001FBF54EA000C55EA020C7FEA645C7FEAB8
:10014000655C00F0E2804FEA5454D4EB5555B8BFDB
:100150006D420CDD2C4480EA020281EA030382EA4C
:10016000000083EA010180EA020281EA0303362DDE
:1001700088BF30BD11F0004F4FEA01314FF4801CB1
:100180004CEA113102D0404261EB410113F0004FC3
:100190004FEA03334CEA133302D0524263EB43037A
:1001A00094EA050F00F0A780A4F10104D5F1200E18
:1001B0000DDB02FA0EFC22FA05F2801841F1000173
:1001C00003FA0EF2801843FA05F359410EE0A5F147
:1001D00020050EF1200E012A03FA0EFC28BF4CF078
:1001E000020C43FA05F3C01851EBE37101F000452E
:1001F00007D54FF0000EDCF1000C7EEB00006EEB3B
:100200000101B1F5801F1BD3B1F5001F0CD34908C4
:100210005FEA30004FEA3C0C04F101044FEA44521B
:1002200012F5800F80F09A80BCF1004F08BF5FEAA2
:10023000500C50F1000041EB045141EA050130BD82
:100240005FEA4C0C404141EB0101013C28BFB1F594
:10025000801FE9D291F0000F04BF01460020B1FADF
:1002600081F308BF2033A3F10B03B3F120020CDAB2
:100270000C3208DD02F1140CC2F10C0201FA0CF090
:1002800021FA02F10CE002F11402D8BFC2F1200CF5
:1002900001FA02F120FA0CFCDCBF41EA0C019040AB
:1002A000E41AA2BF01EB0451294330BD6FEA0404F4
:1002B0001F3C1CDA0C340EDC04F11404C4F12002DF
:1002C00020FA04F001FA02F340EA030021FA04F3F1
:1002D00045EA030130BDC4F10C04C4F1200220FA48
:1002E00002F001FA04F340EA0300294630BD21FA86
:1002F00004F0294630BD94F0000F83F4801306BF4C
:1003000081F480110134013D4EE77FEA645C18BF3F
:100310007FEA655C29D094EA050F08BF90EA020FD6
:1003200005D054EA000C04BF1946104630BD91EACE
:10033000030F1EBF0021002030BD5FEA545C05D1D1
:100340004000494128BF41F0004130BD14F5800410
:100350003CBF01F5801130BD01F0004545F0FE4184
:1003600041F470014FF0000030BD7FEA645C1ABFB9
:10037000194610467FEA655C1CBF0B46024650EAF0
:10038000013406BF52EA033591EA030F41F400211C
:1003900030BD00BF90F0000F04BF0021704730B5A2
:1003A0004FF4806404F132044FF000054FF0000177
:1003B00050E700BF90F0000F04BF0021704730B538
:1003C0004FF4806404F1320410F0004548BF40420D
:1003D0004FF000013EE700BF42004FEAE2014FEA62
:1003E00031014FEA02701FBF12F07F4393F07F4F3D
:1003F00081F06051704732F07F4208BF704793F040
:100400007F4F04BF41F40021704730B54FF4607452
:1004100001F0004521F000411CE700BF50EA010255
:1004200008BF704730B54FF000050AE050EA0102FE
:1004300008BF704730B511F0004502D5404261EB6E
:1004400041014FF4806404F132045FEA915C3FF4AF
:10045000D8AE4FF003025FEADC0C18BF03325FEA4C
:10046000DC0C18BF033202EBDC02C2F1200300FAFD
:1004700003FC20FA02F001FA03FE40EA0E0021FA22
:1004800002F11444BDE600BF70B54FF0FF0C4CF410
:10049000E06C1CEA11541DBF1CEA135594EA0C0FC2
:1004A00095EA0C0F00F0DEF82C4481EA030621EAFD
:1004B0004C5123EA4C5350EA013518BF52EA033538
:1004C00041F4801143F4801338D0A0FB02CE4FF0EA
:1004D0000005E1FB02E506F00042E0FB03E54FF01A
:1004E0000006E1FB03569CF0000F18BF4EF0010E12
:1004F000A4F1FF04B6F5007F64F5407404D25FEA0E
:100500004E0E6D4146EB060642EAC62141EA5551C0
:100510004FEAC52040EA5E504FEACE2EB4F1FD0C02
:1005200088BFBCF5E06F1ED8BEF1004F08BF5FEA80
:10053000500E50F1000041EB045170BD06F0004632
:1005400046EA010140EA020081EA0301B4EB5C04DF
:10055000C2BFD4EB0C0541EA045170BD41F48011D7
:100560004FF0000E013C00F3AB8014F1360FDEBFFC
:10057000002001F0004170BDC4F10004203C35DAD8
:100580000C341BDC04F11404C4F1200500FA05F35B
:1005900020FA04F001FA05F240EA020001F00042FC
:1005A00021F0004110EBD37021FA04F642EB060172
:1005B0005EEA430E08BF20EAD37070BDC4F10C049C
:1005C000C4F1200500FA04F320FA05F001FA04F260
:1005D00040EA020001F0004110EBD37041F100014C
:1005E0005EEA430E08BF20EAD37070BDC4F1200557
:1005F00000FA05F24EEA020E20FA04F301FA05F2BF
:1006000043EA020321FA04F001F0004121FA04F266
:1006100020EA020000EBD3705EEA430E08BF20EA36
:10062000D37070BD94F0000F0FD101F00046400070
:1006300041EB010111F4801F08BF013CF7D041EAF2
:10064000060195F0000F18BF704703F000465200F6
:1006500043EB030313F4801F08BF013DF7D043EAC7
:100660000603704794EA0C0F0CEA135518BF95EA7D
:100670000C0F0CD050EA410618BF52EA4306D1D104
:1006800081EA030101F000414FF0000070BD50EA23
:10069000410606BF1046194652EA430619D094EAAD
:1006A0000C0F02D150EA013613D195EA0C0F05D197
:1006B00052EA03361CBF104619460AD181EA0301EB
:1006C00001F0004141F0FE4141F470014FF00000A3
:1006D00070BD41F0FE4141F4780170BD70B54FF03E
:1006E000FF0C4CF4E06C1CEA11541DBF1CEA1355BE
:1006F00094EA0C0F95EA0C0F00F0A7F8A4EB0504A0
:1007000081EA030E52EA03354FEA013100F0888096
:100710004FEA03334FF0805545EA131343EA12635F
:100720004FEA022245EA111545EA10654FEA002614
:100730000EF000419D4208BF964244F1FD0404F5CD
:10074000407402D25B084FEA3202B61A65EB030529
:100750005B084FEA32024FF480104FF4002CB6EBE6
:10076000020E75EB030E22BFB61A754640EA0C0066
:100770005B084FEA3202B6EB020E75EB030E22BFA6
:10078000B61A754640EA5C005B084FEA3202B6EBE7
:10079000020E75EB030E22BFB61A754640EA9C00A6
:1007A0005B084FEA3202B6EB020E75EB030E22BF76
:1007B000B61A754640EADC0055EA060E18D04FEA34
:1007C000051545EA16754FEA06164FEAC30343EAD4
:1007D00052734FEAC2025FEA1C1CC0D111F4801FA1
:1007E0000BD141EA00014FF000004FF0004CB6E79A
:1007F00011F4801F04BF01430020B4F1FD0C88BF39
:10080000BCF5E06F3FF6AFAEB5EB030C04BFB6EB43
:10081000020C5FEA500C50F1000041EB045170BD36
:100820000EF0004E4EEA113114EB5C04C2BFD4EB63
:100830000C0541EA045170BD41F480114FF0000EE7
:10084000013C90E645EA060E8DE60CEA135594EA63
:100850000C0F08BF95EA0C0F3FF43BAF94EA0C0F66
:100860000AD150EA01347FF434AF95EA0C0F7FF4DB
:1008700025AF104619462CE795EA0C0F06D152EA2F
:1008800003353FF4FDAE1046194622E750EA410613
:1008900018BF52EA43067FF4C5AE50EA41047FF424
:1008A0000DAF52EA43057FF4EBAE12E74FF0FF3C89
:1008B00006E000BF4FF0010C02E000BF4FF0010C5A
:1008C0004DF804CD4FEA410C7FEA6C5C4FEA430CD3
:1008D00018BF7FEA6C5C1BD001B050EA410C0CBF22
:1008E00052EA430C91EA030F02BF90EA020F002084
:1008F000704710F1000F91EA030F58BF994208BFEB
:1009000090422CBFD8176FEAE37040F001007047A7
:100910004FEA410C7FEA6C5C02D150EA013C07D1FE
:100920004FEA430C7FEA6C5CD6D152EA033CD3D049
:100930005DF8040B704700BF8446104662468C4643
:100940001946634600E000BF01B5FFF7B7FF002876
:1009500048BF10F1000F01BD4DF808EDFFF7F4FF9F
:100960000CBF012000205DF808FB00BF4DF808ED2A
:10097000FFF7EAFF34BF012000205DF808FB00BF4D
:100980004DF808EDFFF7E0FF94BF012000205DF86F
:1009900008FB00BF4DF808EDFFF7CEFF94BF012024
:1009A00000205DF808FB00BF4DF808EDFFF7C4FF1D
:1009B00034BF012000205DF808FB00BF4FEA410270
:1009C00012F5001215D211D56FF47873B3EB6252A1
:1009D00012D94FEAC12343F0004343EA505311F0C8
:1009E000004F23FA02F018BF404270474FF000005A
:1009F000704750EA013005D111F0004008BF6FF098
:100A0000004070474FF00000704700BF4A0011D20D
:100A100012F5001211D20DD56FF47873B3EB625258
:100A20000ED44FEAC12343F0004343EA505323FA64
:100A300002F070474FF00000704750EA013002D1D9
:100A40004FF0FF3070474FF0000070470348044BF1
:100A5000834202D0034B03B1184770476C0000205B
:100A60006C000020000000000548064B1B1AD90F3F
:100A700001EBA301491002D0034B03B118477047A3
:100A80006C0000206C0000200000000010B5064C37
:100A9000237843B9FFF7DAFF044B13B10448AFF3EF
:100AA00000800123237010BD6C00002000000000B6
:100AB0007866000808B5054B1BB105490548AFF33A
:100AC0000080BDE80840FFF7CFBF00BF0000000076
:100AD000700000207866000872B6FEE700B595B099
:100AE000282200210DEB020005F0BDFB0023059339
:100AF0000693079308930993019302930393049336
:100B000001220A924FF480330B930E92022211922B
:100B100012934FF4E01313930AA800F071FDC8B9C3
:100B20000F23059302210691002307934FF480625F
:100B30000892099305A800F095FF68B90223019374
:100B40004FF40043039301A801F068F830B915B0E1
:100B50005DF804FBFFF7C0FFFFF7BEFFFFF7BCFF28
:100B600008B500F013FDFFF7B9FF00F015F803F02A
:100B700041FD00F063F900F0D7F900F08BF805486B
:100B800003F052FD03F0DCF900F074F803F0FAF919
:100B9000FEE700BF480100202DE9F04188B00024A5
:100BA00004940594069407942A4B9A6942F0200213
:100BB0009A619A6902F020020092009A9A6942F0C2
:100BC00004029A619A6902F004020192019A9A69F8
:100BD00042F010029A619A6902F010020292029A9F
:100BE0009A6942F008029A619B6903F00803039333
:100BF000039BDFF8648022464FF46071404601F0A9
:100C0000A7F9164D22464FF44E71284601F0A0F97F
:100C10004FF4607304930127059706940226079604
:100C200004A9404601F086F8042304930594069431
:100C300004A90B4801F07EF84FF44E730493059716
:100C40000694079604A9284601F074F808B0BDE898
:100C5000F08100BF0010024000100140000C014074
:100C60000014014008B505F051F8002002F0FCFB2B
:100C700008BD000008B5044A0021044803F0A8F9A3
:100C8000034B186008BD00BF9C660008650C000897
:100C90008800002000B585B00023019302930393E0
:100CA0001E481F4A02604FF4807282600122027364
:100CB00003754FF46022C26143600323036100F0B7
:100CC000BBFBF0B90723019301220292039301A910
:100CD000124800F009FAB8B90623019302230293DF
:100CE00001A90E4800F000FA88B9052301930323F7
:100CF000029301A9094800F0F7F958B905B05DF869
:100D000004FBFFF7E9FEDDE7FFF7E6FEE4E7FFF7A8
:100D1000E3FEEAE7FFF7E0FEF0E700BFD0000020C7
:100D20000024014010B586B000230293039304937E
:100D3000059302681E4B9A4201D006B010BD0446CE
:100D400003F56C439A6942F400729A619A6902F45D
:100D500000720092009A9A6942F004029A619B69BB
:100D600003F004030193019BE02302930323039305
:100D700002A9104800F0DEFF0F48104B036000236B
:100D8000436083608022C2604FF4807202614FF43E
:100D90008062426120228261C36101F0F5F818B9D6
:100DA000054B23625C62C8E7FFF796FEF8E700BFD9
:100DB00000240140000801408C000020080002408F
:100DC0000268094B9A4200D0704782B003F5644331
:100DD0009A6942F400629A619B6903F4006301938B
:100DE000019B02B0704700BF002C014000B587B0E6
:100DF0000023029303930493059302680D4B9A42D8
:100E000002D007B05DF804FB03F564439A6942F031
:100E100004029A619B6903F004030193019B4FF460
:100E20007063029302230393059302A9024800F022
:100E300081FFE6E7002C01400008014010B592B0A8
:100E400000241094119409940A940B940C940D941A
:100E50000E940F942022214601A805F004FA304890
:100E6000304B0360446084604FF6FF73C3600461DD
:100E70004461846101F0CAFA00283CD10023109338
:100E8000119310A9264801F089FB002836D1602370
:100E9000099300220A920B920C920D920E920F92DD
:100EA00009A91F4801F00CFB58BB042209A91C48E2
:100EB00001F006FB40BB082209A9194801F000FB1C
:100EC00028BB0C2209A9164801F0FAFA10BB00232E
:100ED000019302930393049305934FF400520692F7
:100EE000089301A90E4801F08FFBB0B90C48FFF739
:100EF0007DFF12B010BDFFF7EFFDBFE7FFF7ECFD80
:100F0000C5E7FFF7E9FDD0E7FFF7E6FDD3E7FFF719
:100F1000E3FDD6E7FFF7E0FDD9E7FFF7DDFDE5E705
:100F200000010020002C014008B50A480A4B03606C
:100F30004FF4E133436000238360C36003610C22FC
:100F400042618361C36101F015FC00B908BDFFF780
:100F5000C3FDFBE7480100200038014010B586B012
:100F60000023029303930493059302681A4B9A4259
:100F700001D006B010BD03F558439A6942F480428F
:100F80009A619A6902F480420092009A9A6942F04A
:100F900008029A619B6903F008030193019B4023B7
:100FA000029302230393032305930C4C02A92046CA
:100FB00000F0C0FE8023029300230393049302A950
:100FC000204600F0B7FE064A536843F0E06343F062
:100FD00004035360CDE700BF00380140000C01401E
:100FE00000000140FEE7FEE7FEE7FEE7FEE7704790
:100FF00008B500F0DDFA02F035FD012800D108BD8A
:1010000003F040FAFBE7000008B5024801F02EF8B3
:1010100008BD00BF8C00002000B583B0114B9A6959
:1010200042F001029A619A6902F001020092009A6C
:10103000DA6942F08052DA61DB6903F08053019390
:10104000019B00220F216FF0010001F0F7F8064A22
:10105000536823F0E06343F00073536003B05DF81E
:1010600004FB00BF0010024000000140704708B5BB
:10107000436A9A6A12F0500F1ED19A6A42F40072C3
:101080009A621A68926802F46022B2F5602F03D067
:101090001846FFF7EBFF08BD1A7B002AF8D19A6AC1
:1010A00022F480729A629A6A12F4805FF0D19A6A8E
:1010B00042F001029A62EBE71B6A1B6B9847EAE772
:1010C000704708B5406AFFF7FBFF08BD704708B5D9
:1010D000406A836A43F040038362C36A43F00403B7
:1010E000C362FFF7F3FF08BD30B482B00022019263
:1010F00090F82420012A00F08F800346012280F816
:1011000024204A68062A2DD80468606B02EB82020C
:10111000053A4FF01F0C0CFA02FC20EA0C000D6897
:1011200005FA02F2024362630A68092A38D91C6888
:10113000E06802EB42021E3A4FF0070C0CFA02FC88
:1011400020EA0C008D6805FA02F20243E2600A68A8
:10115000103A012A34D90020002283F8242002B05A
:1011600030BC70470C2A0DD80568286B02EB820250
:10117000233A1F24944020EA04000C689440204342
:101180002863D1E70568E86A02EB8202413A1F242E
:10119000944020EA04000C6894402043E862C3E7CE
:1011A0001C68206902EB42024FF0070C0CFA02FCAB
:1011B00020EA0C008D6805FA02F202432261C6E7BC
:1011C0001A681648824205D09A6A42F020029A6252
:1011D0000120C1E7906810F4000F1BD1906840F423
:1011E000000090600A68102A01D00020B4E70C4A81
:1011F00012680C49A1FB0212920C02EB820252000F
:10120000019202E0019A013A0192019A002AF9D171
:101210000020A1E700209FE70220A0E70024014072
:101220000800002083DE1B4330B583B00023019308
:1012300003689A6812F0010F33D104469A6842F0AD
:1012400001029A60184B1B68184AA2FB03239B0CEF
:10125000019302E0019B013B0193019B002BF9D11B
:1012600000F0B2F9054623689B6813F0010F16D110
:1012700000F0AAF9431B022BF5D923689B6813F0F1
:10128000010FF0D1A36A43F01003A362E36A43F0B5
:101290000103E362002384F82430012002E00020EF
:1012A00000E0002003B030BD0800002083DE1B43B7
:1012B000F8B504460D46164601684448814259D0A7
:1012C000434B994256D094F82430012B7CD0012313
:1012D00084F824302046FFF7A7FF074600286ED188
:1012E000A16A21F4706121F0010141F48071A162D1
:1012F0002268374B9A4244D0A36A23F48013A36236
:10130000536813F4806F05D0A36A23F4405343F469
:101310008053A362A36A13F4805F48D0E36A23F08A
:101320000603E362002384F82430236A294A9A6280
:10133000236A294ADA62236A284A1A6323686FF00B
:1013400002021A602268936843F4807393602168F4
:1013500033462A464C31206A00F04CFE23689A68D6
:1013600002F46022B2F5602F24D09A6842F4801211
:101370009A6027E0154B5B6813F4702FA3D0012708
:1013800020E0A3F580635B6813F4702FB4D0A36AE8
:1013900043F48013A3620D4B5B6813F4806FB9D0E4
:1013A000A36A23F4405343F48053A362B2E70023BB
:1013B000E362B7E79A6842F4A0029A6002E0002371
:1013C00084F824303846F8BD0227FBE700240140AA
:1013D000002801406F100008C3100008CF1000085B
:1013E00038B503689A6812F0010F01D1002038BDAA
:1013F00004469A6822F001029A6000F0E5F805467A
:1014000023689B6813F0010F13D000F0DDF8431B35
:10141000022BF5D923689B6813F0010FF0D0A36A63
:1014200043F01003A362E36A43F00103E362012087
:10143000DDE70020DBE7000000287BD070B5044624
:10144000836A002B4DD02046FFF7CAFFA36A13F032
:10145000100369D1002867D1A26A22F4885222F0D1
:10146000020242F00202A2626268E1690A43217B41
:1014700042EA4102A568B5F5807F02D0012D36D041
:101480001D46267D012E35D02668716821F46941FC
:10149000294371602568AE68274931401143A9602E
:1014A000A168B1F5807F01D0012902D12369013BF8
:1014B0001B052568E96A21F470010B43EB62236880
:1014C00099681E4B0B409A4225D0A36A23F0120361
:1014D00043F01003A362E36A43F00103E3620120D7
:1014E00027E0C36280F82430FFF71CFCABE74FF421
:1014F0008075C6E731B9A169013945EA413141F446
:101500000065C1E7A16A41F02001A162E16A41F0F2
:101510000101E162B8E70023E362A36A23F0030359
:1015200043F00103A36204E0A36A43F01003A36243
:10153000012070BD01207047FDF7E1FFFE0E1FFF87
:1015400010B504460E4B1A784FF47A73B3FBF2F3DE
:101550000C4A1068B0FBF3F000F08EFE68B90F2C57
:1015600001D901200AE0002221464FF0FF3000F0AF
:1015700065FE054B1C60002000E0012010BD00BF8F
:1015800000000020080000200400002008B5074AE1
:10159000136843F010031360032000F03DFE0F209A
:1015A000FFF7CEFFFFF738FD002008BD0020024006
:1015B000034A1168034B1B780B441360704700BF4C
:1015C0009001002000000020014B1868704700BF08
:1015D0009001002082B0084B1B68084AA2FB03233D
:1015E0005B0A00FB03F3019300BF019B5A1E0192AB
:1015F000002BF9D102B0704708000020D34D6210D3
:10160000002800F0F18170B582B00446036813F041
:10161000010F2CD0994B5B6803F00C03042B1DD0F9
:10162000964B5B6803F00C03082B12D06368B3F58C
:10163000803F41D0002B55D103F1804303F50433A3
:101640001A6822F480321A601A6822F480221A6022
:1016500037E08A4B5B6813F4803FE7D0874B1B6809
:1016600013F4003F03D06368002B00F0BF812368B0
:1016700013F0020F75D0814B5B6813F00C0F5FD035
:101680007E4B5B6803F00C03082B54D02369002BBE
:1016900000F08A807A4B01221A60FFF795FF054619
:1016A000764B1B6813F0020F75D1FFF78DFF401BBF
:1016B0000228F5D903209EE1704A136843F4803371
:1016C0001360636843B3FFF77FFF05466B4B1B68EE
:1016D00013F4003FCBD1FFF777FF401B6428F5D907
:1016E000032088E1B3F5A02F09D0644B1A6822F4D7
:1016F00080321A601A6822F480221A60E1E703F14E
:101700008043A3F53C331A6842F480221A601A68B9
:1017100042F480321A60D4E7FFF756FF0546574B74
:101720001B6813F4003FA2D0FFF74EFF401B642854
:10173000F5D903205FE1514B5B6813F4803FA5D1DD
:101740004E4B1B6813F0020F03D02369012B40F0AE
:101750004F814A4A136823F0F803616943EAC103E1
:101760001360236813F0080F33D0A369002B5CD0FB
:10177000434B0122C3F88024FFF726FF05463F4B69
:101780005B6A13F0020F21D1FFF71EFF401B0228F6
:10179000F5D903202FE1394A136823F0F803616972
:1017A00043EAC1031360DCE7354B00221A60FFF700
:1017B0000BFF0546314B1B6813F0020FD1D0FFF72A
:1017C00003FF401B0228F5D9032014E10120FFF795
:1017D00001FF236813F0040F00F09680274BDB69AC
:1017E00013F0805F34D1254BDA6942F08052DA6120
:1017F000DB6903F080530193019B0125214B1B689A
:1018000013F4807F26D0E368012B3DD0002B53D109
:1018100003F1804303F504331A6A22F001021A62CD
:101820001A6A22F004021A6233E0154B0022C3F850
:101830008024FFF7C9FE0546104B5B6A13F0020FC8
:10184000C7D0FFF7C1FE401B0228F5D90320D2E024
:101850000025D3E70B4A136843F480731360FFF746
:10186000B3FE0646074B1B6813F4807FCBD1FFF70E
:10187000ABFE801B6428F5D90320BCE000100240B9
:1018800000004242007000405F4A136A43F00103C7
:101890001362E36833B3FFF797FE06465A4B1B6AA1
:1018A00013F0020F2FD1FFF78FFE801B41F2883318
:1018B0009842F3D903209EE0052B09D0524B1A6AB7
:1018C00022F001021A621A6A22F004021A62E0E7A8
:1018D0004D4B1A6A42F004021A621A6A42F001027F
:1018E0001A62D6E7FFF770FE0646474B1B6A13F0F5
:1018F000020F08D0FFF768FE801B41F28833984240
:10190000F3D9032077E0E5B9E369002B72D03E4AB2
:10191000526802F00C02082A56D0022B17D03B4B1B
:1019200000221A66FFF750FE0446374B1B6813F07F
:10193000007F47D0FFF748FE001B0228F5D903209F
:1019400059E0314AD36923F08053D361DCE72F4B50
:1019500000221A66FFF738FE05462B4B1B6813F072
:10196000007F06D0FFF730FE401B0228F5D9032088
:1019700041E0236AB3F5803F1AD023494B6823F432
:101980007413226A606A024313434B601F4B0122A7
:101990001A66FFF719FE04461B4B1B6813F0007F05
:1019A0000ED1FFF711FE001B0228F5D9032022E01B
:1019B000154A536823F40033A1680B435360DCE7F6
:1019C000002018E0002016E0012B16D00E4B5B68BB
:1019D00003F48031226A914211D103F47013626AD8
:1019E00093420ED1002006E001207047012002E062
:1019F000012000E0002002B070BD0120FBE70120C3
:101A0000F9E70120F7E700BF001002400000424262
:101A10000F4B5B6803F00C02082A01D00D48704799
:101A2000C3F383420C49885C13F4803F0BD0084B0E
:101A30005B68C3F34043094AD35C064A02FB00F0EB
:101A4000B0FBF3F07047064B03FB00F0704700BF9C
:101A50000010024000127A00C4660008C066000848
:101A600000093D00002800F0A08070B50D46044636
:101A7000524B1B6803F007038B420BD24F4A13688B
:101A800023F007030B431360136803F007038B4233
:101A900040F08D80236813F0020F17D013F0040F6D
:101AA00004D0474A536843F4E0635360236813F05B
:101AB000080F04D0424A536843F460535360404ACD
:101AC000536823F0F003A1680B435360236813F0BD
:101AD000010F31D06368012B20D0022B25D0384A6A
:101AE000126812F0020F64D035494A6822F00302EE
:101AF00013434B60FFF768FD0646314B5B6803F00C
:101B00000C036268B3EB820F16D0FFF75DFD801BFC
:101B100041F288339842F0D9032045E0284A126800
:101B200012F4003FE0D101203EE0254A126812F095
:101B3000007FD9D1012037E0204B1B6803F0070359
:101B4000AB420AD91D4A136823F007032B431360E5
:101B5000136803F00703AB422DD1236813F0040F81
:101B600006D0174A536823F4E063E1680B435360DF
:101B7000236813F0080F07D0114A536823F4605309
:101B8000216943EAC1035360FFF742FF0C4B5B68D6
:101B9000C3F303130B4AD35CD8400B4B18600B4BB9
:101BA0001868FFF7CDFC002070BD012070470120B0
:101BB000FAE70120F8E70120F6E700BF0020024025
:101BC00000100240DC66000808000020040000202D
:101BD000014B1868704700BF0800002008B5FFF7E8
:101BE000F7FF044B5B68C3F30223034AD35CD8407E
:101BF00008BD00BF00100240D466000808B5FFF71A
:101C0000E7FF044B5B68C3F3C223034AD35CD840AD
:101C100008BD00BF00100240D466000870B582B055
:101C20000446036813F0010F36D03F4BDB6913F015
:101C3000805F49D13C4BDA6942F08052DA61DB695E
:101C400003F080530193019B0125384B1B6813F46B
:101C5000807F3BD0344B1B6A13F4407313D062680F
:101C600002F440729A420ED02F4A136A23F4407055
:101C70002F490126C1F840640026C1F84064106273
:101C800013F0010F36D1284A136A23F440736168B8
:101C90000B431362002D3ED1236813F0020F06D0D0
:101CA000214A536823F44043A1680B4353602368DF
:101CB00013F0100F34D01C4A536823F48003E168FA
:101CC0000B43536000202CE00025BEE7174A136841
:101CD00043F480731360FFF777FC0646134B1B68D1
:101CE00013F4807FB6D1FFF76FFC801B6428F5D911
:101CF000032016E0FFF768FC06460B4B1B6A13F047
:101D0000020FC0D1FFF760FC801B41F2883398427C
:101D1000F3D9032005E0D36923F08053D361BBE7F7
:101D2000002002B070BD00BF0010024000700040F3
:101D30000000424270B582B00024A446A2E07E4D6D
:101D4000AB4210D007D97D4DAB420CD005F58035A4
:101D5000AB4208D013E0A5F58015AB4203D005F5E2
:101D60007025AB4207D18B68002B55D0012B4ED08C
:101D70004261082403E0A5F58015AB42F3D0BEF123
:101D8000FF0F4BD806464FEA8C0233680F2595406B
:101D900023EA050304FA02F2134333604B6813F09D
:101DA000805F6DD0664B9A6942F001029A619B692F
:101DB00003F001030193019B4FEA9C02951C614BC8
:101DC00053F825600CF00305AD000F23AB4026EA65
:101DD00003065D4B984228D003F58063984200F0DB
:101DE0008D8003F58063984200F08A8003F580635C
:101DF000984218D0042319E0CC68C0E7CC680434BA
:101E0000BDE7CC680834BAE7CC680C34B7E70261A8
:101E10000824B4E70024B2E70424B0E7061DACF1BF
:101E200008029200B1E7032300E00023AB403343F4
:101E30000232444D45F822304B6813F4801F61D0C4
:101E4000424A936843EA0E0393604B6813F4001F01
:101E50005ED03E4AD36843EA0E03D3604B6813F466
:101E6000003F5BD0394A536843EA0E0353604B6826
:101E700013F4803F58D0354A136843EA0E031360C9
:101E80000CF1010C0B6833FA0CF253D0012202FA68
:101E90000CF203EA020E32EA0303F1D14B68122B73
:101EA0003FF64DAF122B3FF66AAF01A555F823F070
:101EB000671D0008F91D0008031E0008151E000814
:101EC0007F1D00087F1D00087F1D00087F1D000882
:101ED0007F1D00087F1D00087F1D00087F1D000872
:101EE0007F1D00087F1D00087F1D00087F1D000862
:101EF0007F1D0008FD1D0008091E0008012395E74D
:101F0000022393E7114A936823EA0E0393609CE748
:101F10000E4AD36823EA0E03D3609FE70B4A536847
:101F200023EA0E035360A2E7084A136823EA0E036C
:101F30001360A5E702B070BD000022100000311050
:101F40000010024000000140000801400004014070
:101F50000AB10161704709040161704730B401247E
:101F6000056CAC40C56B6C60046863604368102B03
:101F700005D0036899600368DA6030BC7047036875
:101F80009A600368D960F8E760B310B4024601684C
:101F9000154B0B441548A0FB03031B099B0013645E
:101FA000134BD363022382F82130086820F47F505A
:101FB00020F03000536894682343D46823431469A5
:101FC00023435469234394692343D469234303433C
:101FD0000B6000209063012382F8213082F82000FA
:101FE00010BC704701207047F8FFFDBFCDCCCCCCB2
:101FF0000000024038B5044690F82000012832D095
:10200000012084F8200094F82100C0B2012804D0F7
:10201000002384F82030022038BD022084F82100FB
:102020000020A0632568286820F001002860204671
:10203000FFF794FFE36A5BB12268136843F00E0375
:1020400013602268136843F0010313600020E3E784
:102050002268136823F0040313602268136843F0B6
:102060000A031360EDE70220D6E7000038B5C36B22
:102070001A6804682568016C04238B40134235D02C
:1020800015F0040F32D0236813F0200F03D123681A
:1020900023F0040323600368434A934214D01432AC
:1020A000934218D01432934217D01432934217D06F
:1020B0001432934217D01432934202D04FF0806210
:1020C00003E04FF4800200E00422384B5A60C36AF8
:1020D00003B1984738BD4022F7E74FF48062F4E738
:1020E0004FF48042F1E74FF48022EEE702238B4069
:1020F00013423CD015F0020F39D0236813F0200FA3
:1021000006D1236823F00A032360012380F82130DD
:102110000368254A934214D0143293421CD01432DF
:1021200093421BD0143293421BD0143293421BD0E3
:102130001432934202D04FF0007203E04FF40012C9
:1021400000E00222194B5A60002380F82030836A95
:10215000002BBFD09847BDE72022F3E74FF4007271
:10216000F0E74FF40052EDE74FF40032EAE70823BE
:102170008B401342AED015F0080FABD0236823F08C
:102180000E032360026CC16B012303FA02F24A6062
:10219000836380F82130002380F82030036B002B0C
:1021A00098D0984796E700BF080002400000024020
:1021B000002808DB0901C9B200F1604000F5614068
:1021C00080F80013704700F00F000901C9B2014BFD
:1021D0001954704714ED00E000B500F00700C0F19D
:1021E000070CBCF1040F28BF4FF0040C031D062B95
:1021F0000FD9C31E4FF0FF3E0EFA0CF021EA00018A
:1022000099400EFA03FE22EA0E0241EA02005DF84E
:1022100004FB0023EEE70000074AD36823F4E063E1
:102220001B041B0C000200F4E060034343F0BF6397
:1022300043F40033D360704700ED00E010B504466E
:10224000054BD868C0F30220FFF7C6FF01462046C1
:10225000FFF7AEFF10BD00BF00ED00E0002807DB78
:1022600000F01F02400901239340024A42F8203047
:10227000704700BF00E100E00138B0F1807F0BD271
:102280004FF0E0235861054AF02182F82310002026
:10229000986107221A6170470120704700ED00E045
:1022A00030B4026A036A23F001030362456883695C
:1022B00023F073030C681C4322F002028B68134363
:1022C0000B4A904206D0456084614A6842630362CB
:1022D00030BC704723F00803CA681A4322F0040395
:1022E00025F440754A692A438D691543EBE700BF21
:1022F000002C014030B4036A026A22F48072026248
:102300004468C26922F073020D68154323F4007318
:102310008A6843EA02230D4A904206D04460C561B0
:102320004A68C263036230BC704723F40063CA6822
:1023300043EA022323F4806324F440544A6944EAC4
:1023400002148A6944EA0214E8E700BF002C014045
:1023500030B4036A026A22F4805202624468C2699D
:1023600022F4E6420D6842EA052223F400538D6808
:1023700043EA0533074DA84206D04460C2614A686B
:102380000264036230BC704724F480444D6944EA1F
:102390008514F2E7002C014003681B4A90420AD0E2
:1023A000B0F1804F07D0A2F59432904203D002F5ED
:1023B0008062904203D123F070034A681343124AAB
:1023C00090420AD0B0F1804F07D0A2F594329042EB
:1023D00003D002F58062904203D123F44073CA68AF
:1023E000134323F080034A69134303608B68C3627D
:1023F0000B688362044B984202D00123436170470B
:102400000B690363F9E700BF002C014040B310B52E
:10241000044690F83D30F3B1022384F83D30214664
:1024200051F8040BFFF7B8FF012384F8463084F815
:102430003E3084F83F3084F8403084F8413084F8EE
:10244000423084F8433084F8443084F8453084F8CE
:102450003D30002010BD80F83C30FEF7B1FCDBE7DA
:102460000120704730B4036A026A22F0100202624F
:102470004468826922F4E6420D6842EA052223F0AC
:1024800020038D6843EA05130C4DA84206D0446032
:1024900082614A688263036230BC704723F0800324
:1024A000CD6843EA051323F0400324F440644D69EA
:1024B00044EA85048D6944EA8504E8E7002C01407C
:1024C00038B590F83C30012B66D004460D46012308
:1024D00080F83C300C2A5AD8DFE802F007595959E5
:1024E0001B5959593059595944000068FFF7D8FE13
:1024F0002268936943F0080393612268936923F08B
:10250000040393612268936929690B439361002056
:102510003EE00068FFF7A6FF2268936943F400637A
:1025200093612268936923F48063936122689369BD
:10253000296943EA01239361002029E00068FFF73D
:10254000D9FE2268D36943F00803D3612268D369B6
:1025500023F00403D3612268D36929690B43D36153
:10256000002015E00068FFF7F3FE2268D36943F40A
:102570000063D3612268D36923F48063D361226846
:10258000D369296943EA0123D361002000E00120D7
:10259000002384F83C3038BD0220FCE790F83C2052
:1025A000012A2CD010B40346012280F83C200222DC
:1025B00080F83D2002685068946820F0700C08682C
:1025C00040EA0C0050601A680E4882420AD0B2F10C
:1025D000804F07D0A0F59430824203D000F5806090
:1025E000824204D124F08004496821439160012291
:1025F00083F83D20002083F83C0010BC7047022087
:10260000704700BF002C0140024690F83C30012B7F
:1026100021D0012380F83C30CB6823F440738868D4
:10262000034323F480634868034323F4006308688A
:10263000034323F480530869034323F40053486998
:10264000034323F48043C9690B4311684B640020A2
:1026500082F83C00704702207047000010B5044625
:102660000268136923F44053C1680B431361836804
:102670000269134342691A430168CB6823F4B053DB
:1026800023F00C031343CB600268536923F44073B7
:1026900081690B4353610268134B9A4220D0FFF7C4
:1026A0009DFA024602EB820202EB820263689B0003
:1026B000B2FBF3F20D48A0FB02314909642303FB8E
:1026C00011231B013233A0FB03035B0903F0F0026B
:1026D00002EB011203F00F03216813448B6010BD5D
:1026E000FFF78CFA0246DDE7003801401F85EB5109
:1026F0002DE9F84305460F4616469946DDF8208039
:102700002B681C6837EA04040CBF01240024B4427F
:102710002DD1B8F1FF3FF3D0B8F1000F05D0FEF78F
:1027200053FFA0EB09004045EAD92A6802F10C03E7
:1027300053E8003F23F4D0730C3242E80031002903
:10274000F3D12A6802F1140353E8003F23F0010398
:10275000143242E800310029F3D1202385F84130BA
:1027600085F84230002385F84030032000E0002047
:10277000BDE8F88360B310B5044690F8413013B358
:10278000242384F841302268D36823F40053D360B3
:102790002046FFF763FF2268136923F49043136117
:1027A0002268536923F02A0353612268D36843F4F3
:1027B0000053D36000206064202384F8413084F803
:1027C0004230606310BD80F84030FEF7C7FBD7E7AA
:1027D000012070472DE9F04182B01E4690F841304B
:1027E000DBB2202B4BD104460D46904600294AD03F
:1027F0000AB9012044E000234364212380F84130DA
:10280000FEF7E2FE0746A4F82480A4F82680A36819
:10281000B3F5805F02D04FF000080FE02369FBB1F1
:102820004FF000080AE038F8023B2268C3F30803BF
:102830005360E28C92B2013A92B2E284E38C9BB292
:102840008BB100963B46002280212046FFF750FFC7
:10285000D8B9002DE7D015F8012B23685A60E8E7B6
:10286000A8460025EAE700963B4600224021204684
:10287000FFF73EFF58B9202384F8413000E00220E2
:1028800002B0BDE8F0810120FAE70320F8E7032059
:10289000F6E72DE9F04182B01E4690F84230DBB2F7
:1028A000202B53D104460D469046002952D00AB938
:1028B00001204CE000234364222280F8422003637D
:1028C000FEF782FE0746A4F82C80A4F82E80A368A9
:1028D000B3F5805F02D04FF0000817E0236913B111
:1028E0004FF0000812E0A84600250FE023685B685F
:1028F000C3F3080328F8023B03E023685B682B70EE
:102900000135E28D92B2013A92B2E285E38D9BB23B
:10291000BBB100963B46002220212046FFF7E8FE8F
:10292000D0B9002DE2D0A368B3F5805FE5D013B92C
:102930002369002BE1D023685B6803F07F032B70D1
:10294000DEE7202384F84230002000E0022002B0BD
:10295000BDE8F0810120FAE70320F8E7704700F1B5
:10296000080343604FF0FF328260C36003610023BD
:102970000360704700230361704743684B609A68A7
:102980008A60516099600861036801330360704791
:1029900030B40D68B5F1FF3F11D000F108031C46BB
:1029A0005B681A68AA42FAD963684B6099608C60C8
:1029B0006160086103680133036030BC70470469DB
:1029C000F2E70369416882688A60416851605A6829
:1029D000824206D0002202611A68013A1A60186821
:1029E000704782685A60F5E710B5044601F0EAFCCA
:1029F000A26BE36B9A4204D0002401F005FD20464F
:102A000010BD0124F9E710B5044601F0DBFCA36B0F
:102A100023B9012401F0F8FC204610BD0024F9E799
:102A200070B504461546866B026C5AB903681BB133
:102A300000200136A66370BD406801F023F8002332
:102A40006360F6E76DB9806803F099FCA368226CB7
:102A50001344A3606268934219D32368A360284695
:102A6000E7E7C06803F08BFCE368226C51429B1AD5
:102A7000E3602268934202D263680B44E360022D54
:102A800001D00020D5E726B1013E0020D1E728463D
:102A9000CFE70020CDE708B50346026C62B10846D7
:102AA000D9681144D960D3F804C0614501D31968CD
:102AB000D960D96803F063FC08BD38B5054601F05C
:102AC00081FC95F8454064B201E0013C64B2002C01
:102AD0000ADD6B6A43B105F1240000F029FF0028EC
:102AE000F3D000F0B9FFF0E7FF2385F8453001F09F
:102AF0008BFC01F067FC95F8444064B201E0013CB6
:102B000064B2002C0ADD2B6943B105F1100000F01E
:102B10000FFF0028F3D000F09FFFF0E7FF2385F8B8
:102B2000443001F071FC38BD38B5E0B10D460446C3
:102B300001F048FC2368E26B216C01FB023060600D
:102B40000020A063A360013A02FB0133E360FF238E
:102B500084F8443084F84530FDB9236963B901F045
:102B600053FC012038BD4FF0500383F31188BFF3AD
:102B70006F8FBFF34F8FFEE704F1100000F0D8FE17
:102B80000028ECD04FF0E0234FF08052C3F8042D22
:102B9000BFF34F8FBFF36F8FE1E704F11000FFF732
:102BA000DEFE04F12400FFF7DAFED8E738B51D4653
:102BB000049C0B4649B92460E0632364012120464C
:102BC000FFF7B2FF84F84C5038BD2260F4E740B9FB
:102BD0004FF0500383F31188BFF36F8FBFF34F8F14
:102BE000FEE710B584B01C46844653B192B189B952
:102BF0004FF0500383F31188BFF36F8FBFF34F8FF4
:102C0000FEE74FF0500383F31188BFF36F8FBFF3DC
:102C10004F8FFEE76AB150230393039B502B13D0D1
:102C20004FF0500383F31188BFF36F8FBFF34F8FC3
:102C3000FEE70029EFD04FF0500383F31188BFF374
:102C40006F8FBFF34F8FFEE7012384F84630009467
:102C50009DF818306046FFF7A9FF204604B010BD6C
:102C6000F0B585B0019288B10F461D460446B1B15A
:102C7000022D20D1E36B012B1DD04FF0500383F3C5
:102C80001188BFF36F8FBFF34F8FFEE74FF05003F4
:102C900083F31188BFF36F8FBFF34F8FFEE7036C91
:102CA000002BE5D04FF0500383F31188BFF36F8FF3
:102CB000BFF34F8FFEE700F0D5FE064658B9019BE3
:102CC000002B48D04FF0500383F31188BFF36F8F70
:102CD000BFF34F8FFEE700263DE02A4639462046E7
:102CE000FFF79EFE636A7BB948B14FF0E0234FF0D7
:102CF0008052C3F8042DBFF34F8FBFF36F8F01F0E5
:102D000083FB012005B0F0BD04F1240000F010FEAB
:102D10000028F4D04FF0E0234FF08052C3F8042D88
:102D2000BFF34F8FBFF36F8FE9E701F06DFB00201A
:102D3000E8E702A800F042FE012619E0002384F82B
:102D4000443021E0002384F8453023E02046FFF79B
:102D5000B4FE00F0CBFC01F035FBA26BE36B9A42B2
:102D6000BBD3022DB9D0019B002BDED0002EE0D0CA
:102D700001F04AFB00F020FC01F024FB94F8442011
:102D800052B2B2F1FF3FD9D094F8452052B2B2F11D
:102D9000FF3FD7D001F038FB01A902A800F01AFECE
:102DA000D8B92046FFF720FE0028CFD0019904F1C2
:102DB000100000F089FD2046FFF77FFE00F096FC32
:102DC0000028C8D14FF0E0234FF08052C3F8042D03
:102DD000BFF34F8FBFF36F8FBDE72046FFF76DFE48
:102DE00000F084FC00208DE72DE9F84390B10F46F8
:102DF00016461C460546B1B1022C20D1EB6B012BC7
:102E00001DD04FF0500383F31188BFF36F8FBFF3D2
:102E10004F8FFEE74FF0500383F31188BFF36F8F9E
:102E2000BFF34F8FFEE7036C002BE5D04FF050034C
:102E300083F31188BFF36F8FBFF34F8FFEE701F06D
:102E4000ABFBEFF311884FF0500383F31188BFF30E
:102E50006F8FBFF34F8FAA6BEB6B9A4206D3022C96
:102E600004D0002088F31188BDE8F88395F84590D8
:102E70004FFA89F9224639462846FFF7D1FDB9F1C4
:102E8000FF3F06D009F101035BB285F84530012010
:102E9000E8E76B6A0BB90120E4E705F1240000F0D4
:102EA00047FD18B126B101203060DBE70120D9E7EA
:102EB0000120D7E7F0B585B0019290B10F460446E6
:102EC000C1B100F0CFFD064600BB019B002B5ED0D8
:102ED0004FF0500383F31188BFF36F8FBFF34F8F11
:102EE000FEE74FF0500383F31188BFF36F8FBFF3FA
:102EF0004F8FFEE7036C002BE3D04FF0500383F3BA
:102F00001188BFF36F8FBFF34F8FFEE700263EE0BF
:102F100039462046FFF7BFFD013DA563236923B96C
:102F200001F072FA012005B0F0BD04F1100000F0CC
:102F3000FFFC0028F4D04FF0E0234FF08052C3F89C
:102F4000042DBFF34F8FBFF36F8FE9E701F05CFAF9
:102F50000020E8E702A800F031FD012621E000236F
:102F600084F8443029E0002384F845302BE02046E3
:102F7000FFF7A3FD00F0BAFB09E02046FFF79DFD37
:102F800000F0B4FB2046FFF73EFD00283FD101F0E2
:102F900019FAA56B002DBBD1019B002BD6D0002EBA
:102FA000D8D001F031FA00F007FB01F00BFA94F8E9
:102FB00044305BB2B3F1FF3FD1D094F845305BB2FF
:102FC000B3F1FF3FCFD001F01FFA01A902A800F032
:102FD00001FD0028D1D12046FFF715FD0028C6D0FD
:102FE000019904F1240000F06FFC2046FFF765FD15
:102FF00000F07CFB0028CAD14FF0E0234FF0805254
:10300000C3F8042DBFF34F8FBFF36F8FBFE70020CE
:1030100089E700000023072B0CD8074A52F8332019
:103020000AB10133F7E7044A42F8331002EBC30256
:1030300050607047704700BF9401002070B504468F
:103040000D46164601F0BEF994F844305BB2B3F178
:10305000FF3F0DD094F845305BB2B3F1FF3F0BD08A
:1030600001F0D2F9A36B5BB12046FFF726FD70BDDE
:10307000002384F84430EDE7002384F84530EFE77F
:103080003246294604F1240000F036FCECE700004B
:10309000084B1B681B6823B9074B4FF0FF321A60BF
:1030A0007047044B1B68DB68DB685A68024B1A6088
:1030B000704700BF44020020DC0100202DE9F047EA
:1030C00080460D4617469946089EDDF824A00A9CC6
:1030D0009200A521206B03F0C6F8236B07F1804214
:1030E000013A03EB820727F007074FF0000CBCF111
:1030F0000F0F09D815F80C3004EB0C0282F83430AD
:1031000013B10CF1010CF2E7002384F84330372EA1
:1031100000D93726E662E66400252565201DFFF705
:1031200029FC04F11800FFF725FC2461C6F13806DC
:10313000A6616462656584F858504A46414638463F
:1031400001F01AF92060BAF1000F01D0CAF800406E
:10315000BDE8F08738B5002407E004EB8402930053
:103160000E481844FFF7FBFB0134372CF5D90C4D02
:103170002846FFF7F4FB0B4C2046FFF7F0FB0A480C
:10318000FFF7EDFB0948FFF7EAFB0948FFF7E7FB0C
:10319000084B1D60084B1C6038BD00BF700200204A
:1031A0005C020020480200202C02002018020020AF
:1031B00000020020440200204002002010B5044616
:1031C00001F000F9224A136801331360214B1B6898
:1031D0005BB1214B1B686BB91E4B1B68DA6AE36A53
:1031E0009A4207D81B4B1C6004E01A4B1C60136802
:1031F000012B29D0194A1368013313606364E06A14
:10320000174B1B68984201D9154B186000EB8000E2
:10321000211D144B03EB8000FFF7AFFB01F0F4F826
:103220000D4B1B687BB10B4B1B68DA6AE36A9A4251
:1032300009D24FF0E0234FF08052C3F8042DBFF3C2
:103240004F8FBFF36F8F10BDFFF784FFD2E700BF32
:10325000FC010020D0060020F0010020E001002049
:10326000F40100207002002010B5044690F8593097
:1032700063B1012B11D0022B0ED04FF0500383F31A
:103280001188BFF36F8FBFF34F8FFEE7006B01F024
:103290000BF8204601F008F810BD01F005F8FBE737
:1032A0000F4B1B68D3B110B501F08CF80D4BDB68E8
:1032B000DC68201DFFF785FB0B4A1368013B136098
:1032C000074A1368013B136001F09EF82046FFF7A0
:1032D000CBFF034B1B68002BE6D110BD704700BF2E
:1032E0001402002018020020FC01002008B5FFF79E
:1032F000D7FF074B1B68012BF9D94FF0E0234FF0A4
:103300008052C3F8042DBFF34F8FBFF36F8FEEE7EA
:103310007002002070B504460D46174B1E68174B0F
:1033200018680430FFF74DFBB4F1FF3F0DD0344473
:10333000124B1B685C60A64210D9114B18680F4BEA
:1033400019680431FFF724FB70BD002DEFD00B4B43
:10335000196804310B48FFF710FBF5E70A4B1868B2
:10336000064B19680431FFF713FB084B1B68A34297
:10337000EAD9064B1C60E7E7F8010020D0060020E0
:10338000400200200002002044020020DC01002056
:1033900030B587B00B9C7CB10C9DB5B15C25049514
:1033A000049D5C2D1AD04FF0500383F31188BFF3B6
:1033B0006F8FBFF34F8FFEE74FF0500383F31188F9
:1033C000BFF36F8FBFF34F8FFEE74FF0500383F3D0
:1033D0001188BFF36F8FBFF34F8FFEE70C9D2C63F7
:1033E000022485F8594000240394029505AC019409
:1033F0000A9C0094FFF762FE0C98FFF7DFFE059829
:1034000007B030BD2DE9F04385B007468846144625
:103410001E46900000F0CCFE08B381465C2000F010
:10342000C7FE0546A8B1C0F83090002380F8593097
:10343000039302900D9B01930C9B0093334622460D
:1034400041463846FFF73AFE2846FFF7B7FE01200F
:1034500007E0484600F028FF4FF0FF3001E04FF052
:10346000FF3005B0BDE8F08338B5044600F0AAFF90
:1034700024B3251D2846FFF7A4FAA36A1BB104F163
:103480001800FFF79EFA1F4A1368013313601E4BA2
:103490001B68A34215D01D4A1368013B13602046E8
:1034A000FFF7E2FEFFF7F4FD00F0AEFF184B1B68DC
:1034B0001BB1154B1B68A3420CD038BD124B1C68C6
:1034C000D7E729461348FFF758FA134A1368013320
:1034D0001360E9E7114B1B6843B14FF0500383F3CE
:1034E0001188BFF36F8FBFF34F8FFEE74FF0E023DC
:1034F0004FF08052C3F8042DBFF34F8FBFF36F8F8F
:10350000DBE700BFE0010020D0060020FC01002026
:10351000F00100201802002014020020D401002035
:1035200010B588B000240594069407AA06A905A83A
:1035300000F0C4FD059B0293069B01930094234673
:10354000079A17491748FFF723FF174B1860C0B1B8
:1035500000F04CFB012815D14FF0500383F3118884
:10356000BFF36F8FBFF34F8F104B4FF0FF321A60D6
:103570000F4B01221A600F4B00221A6000F0ACFFC3
:1035800003E00020B0F1FF3F01D008B010BD4FF0C4
:10359000500383F31188BFF36F8FBFF34F8FFEE7A4
:1035A000EC660008ED320008D8010020DC010020A4
:1035B000F0010020F8010020024A13680133136073
:1035C000704700BFD4010020014B1868704700BF4E
:1035D000F8010020F8B53A4B1B68002B64D1394B39
:1035E0001D6801351D60C5B9374B1B681B6843B1A9
:1035F0004FF0500383F31188BFF36F8FBFF34F8FEA
:10360000FEE7314A1168314B186810601960304A82
:10361000136801331360FFF73BFD2E4B1B68AB4271
:1036200038D900272C4B1B68DB6A03EB83039A0015
:103630002A4B9B58012B3CD901273AE00127224B0A
:103640001B681B6843B3204B1B68DB68DC6863683E
:103650009D4226D3261D3046FFF7B3F9A36A1BB15E
:1036600004F11800FFF7ADF9E36A1D4A12689342AE
:1036700001D91B4A136003EB83039A0031461748B4
:103680001044FFF77AF9E26A134B1B68DB6A9A422F
:10369000D4D2D4E70027D2E70E4B4FF0FF321A60A6
:1036A000C0E70C4A1360BDE70E4A1368013313608C
:1036B00000270D4B1B6803B101273846F8BD00BF3A
:1036C000D4010020F8010020440200204002002024
:1036D000E4010020DC010020D00600207002002060
:1036E000F4010020EC010020E801002038B5354B42
:1036F0001B6843B94FF0500383F31188BFF36F8FFA
:10370000BFF34F8FFEE700F05DFE2E4B1A68013AC3
:103710001A601B68002B4FD12B4B1B680BB9002480
:103720004BE00024294B1B681BB3284BDB68DC688B
:1037300004F11800FFF745F9251D2846FFF741F968
:10374000E06A234B1B68984201D9214B186000EBBB
:10375000800029461F4B03EB8000FFF70EF9E26A59
:103760001D4B1B68DB6A9A42DCD31C4B01221A609A
:10377000D8E70CB1FFF78CFC194B1C6884B9174BC8
:103780001C68D4B14FF0E0234FF08052C3F8042DF1
:10379000BFF34F8FBFF36F8F01240EE0013C07D0C2
:1037A000FFF718FF0028F9D00C4B01221A60F5E74B
:1037B0000B4B00221A60E2E7002400F025FE2046B1
:1037C00038BD00BFD4010020FC0100202C020020E5
:1037D000F401002070020020D0060020E801002043
:1037E000EC01002010B5A8B10446104B1B6843B192
:1037F0004FF0500383F31188BFF36F8FBFF34F8FE8
:10380000FEE7FFF7D9FE00212046FFF783FDFFF713
:103810006DFF48B94FF0E0234FF08052C3F8042DFC
:10382000BFF34F8FBFF36F8F10BD00BFD4010020D7
:10383000204B1B681BB1204B01221A6070471E4BA6
:1038400000221A601D4B1B6803EB83018A001C4990
:103850008A585AB90BB1013BF6E74FF0500383F396
:103860001188BFF36F8FBFF34F8FFEE7084603EB5E
:1038700083018A00024451684968516003EB830C5C
:103880004FEA8C020832024491420BD003EB8302D0
:1038900091000B4A0A445268D1680A4A1160074AEB
:1038A00013607047486862469100054A0A445060B8
:1038B000ECE700BFD4010020E8010020F401002063
:1038C00070020020D006002058B110B50C46094AFD
:1038D00011681831FFF75CF801212046FFF71AFD47
:1038E00010BD4FF0500383F31188BFF36F8FBFF308
:1038F0004F8FFEE7D006002038B570B10D46144654
:103900000A4A11681831FFF738F80CB14FF0FF354B
:1039100021462846FFF7FEFC38BD4FF0500383F3E5
:103920001188BFF36F8FBFF34F8FFEE7D0060020E3
:1039300038B5C368DC6824B304F118052846FFF7DE
:1039400040F8184B1B682BBB251D2846FFF739F89C
:10395000E06A154B1B68984201D9134B186000EBC5
:1039600080002946114B03EB8000FFF706F8E26A5E
:103970000F4B1B68DB6A9A4211D901200D4B18606E
:1039800038BD4FF0500383F31188BFF36F8FBFF33F
:103990004F8FFEE729460848FEF7EFFFE7E70020D4
:1039A000EEE700BFD4010020F401002070020020E7
:1039B000D0060020E80100202C020020034B1B68E9
:1039C0000360034B1B684360704700BFE4010020A5
:1039D000F8010020D8B170B50C46054601B300F0DF
:1039E000F1FC1B4B19686B68C81A2268B2F1FF3FE3
:1039F00027D0184E3668D5F800C0B44501D08B42A8
:103A000024D9824215D80023236001241AE04FF004
:103A1000500383F31188BFF36F8FBFF34F8FFEE71F
:103A20004FF0500383F31188BFF36F8FBFF34F8FB5
:103A3000FEE75B1A134423602846FFF7BFFF00240C
:103A400000E0002400F0E0FC204670BD0124F9E70E
:103A5000F8010020E4010020014B01221A607047A8
:103A6000E8010020054B1B6833B1054B1B680BB107
:103A7000002070470220704701207047F0010020AD
:103A8000D401002000283BD038B504461E4B1B68EB
:103A9000834208D04FF0500383F31188BFF36F8F38
:103AA000BFF34F8FFEE7036D43B94FF0500383F32D
:103AB0001188BFF36F8FBFF34F8FFEE7013B0365A4
:103AC000C16AC26C91421DD00BB1002038BD051DEA
:103AD0002846FEF776FFE06CE062C0F13803A36190
:103AE0000A4B1B68984201D9084B186000EB800014
:103AF0002946074B03EB8000FEF73FFF0120E5E777
:103B0000002070470020E1E7D0060020F4010020EB
:103B100070020020064B1A681368B3FA83F35B093E
:103B2000036013B9D368186870470020704700BF5E
:103B3000D407002008B54160006191420CD8D21A28
:103B400083699A4201D3012008BD011D094B186801
:103B5000FEF71EFF0020F7E79A4201D2994206D2F3
:103B6000011D054B1868FEF713FF0020ECE701204C
:103B7000EAE700BFD0070020D407002030B583B0AB
:103B800000F020FC114B1B681BB100F03DFC03B0A2
:103B900030BD0F4D2846FEF7E2FE0E4C2046FEF7E4
:103BA000DEFE0D4B1D600D4B1C60002300930C4B83
:103BB0000C4A10210A20FFF70AF8044B186000286D
:103BC000E3D00949FFF726FADFE700BFCC07002062
:103BD000EC070020D8070020D4070020D0070020E1
:103BE000D406002024070020F466000810B588B031
:103BF000FFF7C4FF124B1B68CBB100240594069459
:103C000007AA06A905A800F065FA059B0293069B82
:103C10000193022300932346079A0A490A48FFF7B3
:103C2000B7FB0A4B186010B1012008B010BD4FF06F
:103C3000500383F31188BFF36F8FBFF34F8FFEE7FD
:103C4000CC070020FC660008293F0008C8070020B8
:103C5000B8B19C4603461848006858B300B585B013
:103C600000910192029305291CDCFFF7FBFE02285C
:103C700010D000231A4669460F480068FEF7F0FF8F
:103C800015E04FF0500383F31188BFF36F8FBFF33C
:103C90004F8FFEE70023069A694607480068FEF743
:103CA000DFFF04E0002362466946FFF79DF805B098
:103CB0005DF804FB00207047CC07002070B582B08F
:103CC0001A4B1B681A6852B3DB681E68DC68251D36
:103CD0002846FEF776FE636A20469847E369012B83
:103CE000EED1A36933449E4207D263602461294622
:103CF0000E4B1868FEF74CFEE2E7002100910B46E0
:103D000032462046FFF7A4FF0028D9D14FF05003D8
:103D100083F31188BFF36F8FBFF34F8FFEE7044A21
:103D2000106802490860136002B070BDD40700201B
:103D3000D007002038B50546FFF746FC0446074B80
:103D40001B68834205D800232B60044B1C6020466F
:103D500038BDFFF7B3FF01232B60F6E7C40700204F
:103D600070B582B006460D4614490968C968CC682A
:103D7000201DFEF726FEE169012904D0636A204672
:103D8000984702B070BDA16933462A4631442046A7
:103D9000FFF7D0FE0028F1D0002100910B463246FB
:103DA0002046FFF755FF0028E8D14FF0500383F37A
:103DB0001188BFF36F8FBFF34F8FFEE7D40700204A
:103DC00070B582B006460C46FFF7F6FB01A8FFF778
:103DD000B1FF019B23BB054644B9B0420CD3FFF7AA
:103DE00085FC29463046FFF7BBFF1BE00E4B1B68E6
:103DF0001C68B4FA84F464092246711B0B4B1868E2
:103E0000FFF71CF9FFF772FC60B94FF0E0234FF0A9
:103E10008052C3F8042DBFF34F8FBFF36F8F01E0C3
:103E2000FFF764FC02B070BDD0070020CC07002073
:103E300010B588B002E0049B002B0FDA002204A921
:103E4000384B1868FFF736F8002869D0049B002B20
:103E5000F1DA07990698059B9847ECE7069C636999
:103E600013B1201DFEF7ADFD03A8FFF763FF049B10
:103E7000092BE3D801A252F823F000BFA53E0008A9
:103E8000A53E0008A53E00083D3E0008EB3E0008A8
:103E9000113F0008A53E0008A53E00083D3E000871
:103EA000EB3E0008059BA169024619442046FFF736
:103EB00041FE0028C2D0636A20469847E369012B7F
:103EC000BCD1A269002100910B460598024420460E
:103ED000FFF7BEFE0028B1D14FF0500383F31188E5
:103EE000BFF36F8FBFF34F8FFEE70599A16131B12B
:103EF0000346024601442046FFF71CFE9EE74FF0B2
:103F0000500383F31188BFF36F8FBFF34F8FFEE72A
:103F100094F82C30002B91D1204600F0C5F98DE7A4
:103F200008B010BDCC07002000B583B001A8FFF792
:103F3000F1FD0199FFF744FFFFF77AFFF6E7000074
:103F4000EFF3058393B9EFF3108393B90C4B186823
:103F5000022804D080B90A4B01221A607047EFF39F
:103F60001183002BF6D06FF0050070476FF005004D
:103F700070476FF0050070474FF0FF30704700BF8B
:103F8000B80E002008B5EFF30583B3B9EFF3108343
:103F9000B3B90E4B1B68022B08D0012B13D10B4B6E
:103FA00002221A60FFF7BCFA002008BDEFF311826D
:103FB000002AF2D06FF00500F7E76FF00500F4E794
:103FC0006FF00500F1E74FF0FF30EEE7B80E00208C
:103FD000F0B587B000240494EFF30584002C43D19E
:103FE000EFF31083002B3FD1334B1B68022B16D00D
:103FF000002839D000238DF8173062B3156895B1C9
:10400000936903B918235C1E372C51D8546814F0F7
:10401000010F4FD156694EB14FEA960C08E0EFF30D
:1040200011830BBBE4E70DF11705E9E74FF0800CB6
:1040300094682CB1D7685B2F02D9176907B1B6B95C
:1040400014B14FF0FF340CE0D46894B914699CB1FA
:104050004FF0FF3405E0002418234FF0800C0DF1E1
:104060001705012C0AD0ACB1049807B0F0BD0124AB
:10407000F7E74FF0FF34F4E70024F2E714699268A1
:104080000292019400930B4662462946FFF780F99D
:104090000490E9E704AA019200930B461FFA8CF200
:1040A0002946FFF7AFF90128DED000230493DBE7B0
:1040B0000020DAE70020D8E7B80E0020034B0360A9
:1040C000034B0B6080231360704700BF5C0E002021
:1040D0005C0C0020034B0360034B0B604FF48073B8
:1040E00013607047000C002000080020124A12F0F4
:1040F000070F1ED0D11D21F00701C1F54063134405
:104100000A460E480260002141601344083B23F038
:1041100007030B48036059601960991A51601360D6
:10412000084B1960084B1960084B4FF000421A60A9
:1041300070474FF44063E4E7D40E0020CC0E00201B
:10414000C80E0020C00E0020C40E0020BC0E0020AF
:10415000154B1A461B688342FBD3516802EB010CD6
:10416000844509D0416800EB010C634509D0036028
:10417000904218D01060704740680144516010466A
:10418000F0E710B4094C2468A3420AD05B681944D4
:10419000416013681B680360904200D0106010BC3F
:1041A00070470460F8E77047CC0E0020C80E00206E
:1041B00038B50446FFF700FA364B1B68B3B1364BEF
:1041C0001B681C424CD1002C4CD004F1080214F0A6
:1041D000070F02D022F007020832002A51D02F4BDD
:1041E0001B6893424FD32E490C6804E0FFF77EFF13
:1041F000E5E721461C466368934202D22368002B00
:10420000F7D1244B1B68A3423FD00D6808352368C3
:104210000B6063689B1A102B10D9A01810F0070FC1
:1042200008D04FF0500383F31188BFF36F8FBFF3B3
:104230004F8FFEE743606260FFF78AFF62681749AD
:104240000B689B1A0B60174909688B4201D215490C
:104250000B60114B1B68134363600023236002E073
:10426000002500E00025FFF741FA15F0070F0ED0FA
:104270004FF0500383F31188BFF36F8FBFF34F8F5D
:10428000FEE70025EFE70025EDE70025EBE72846F0
:1042900038BD00BFC80E0020BC0E0020C40E002098
:1042A000CC0E0020C00E002080B338B50446A0F12B
:1042B000080550F8043C164A1268134208D14FF022
:1042C000500383F31188BFF36F8FBFF34F8FFEE767
:1042D00050F8081C41B14FF0500383F31188BFF32D
:1042E0006F8FBFF34F8FFEE723EA020340F8043CD1
:1042F000FFF762F954F8041C064A13680B44136074
:104300002846FFF725FFFFF7F1F938BD704700BFDA
:10431000BC0E0020C40E002082B0002301930D4B80
:104320001B68B3F1FF3F08D04FF0500383F31188AF
:10433000BFF36F8FBFF34F8FFEE74FF0500383F350
:104340001188BFF36F8FBFF34F8F019B002BFCD001
:1043500002B070470C00002006480068006880F337
:10436000088862B661B6BFF34F8FBFF36F8F00DF6F
:1043700000BF000008ED00E04FF0807340F8043CFF
:1043800021F0010140F8081C034B40F80C3C40F8B8
:10439000202C4038704700BF19430008000000007F
:1043A000074B19680868B0E8F00F80F30988BFF37D
:1043B0006F8F4FF0000080F311884EF00D0E7047A4
:1043C000D00600204FF0500383F31188BFF36F8FA6
:1043D000BFF34F8F0B4A136801331360012B00D0DA
:1043E00070474FF0E023D3F8043D13F0FF0FF7D0F0
:1043F0004FF0500383F31188BFF36F8FBFF34F8FDC
:10440000FEE700BF0C000020094B1B6843B94FF0CA
:10441000500383F31188BFF36F8FBFF34F8FFEE715
:10442000013B034A13600BB983F31188704700BF47
:104430000C00002000000000000000000000000050
:10444000EFF30980BFF36F8F0D4B1A6820E9F00F6F
:1044500010602DE908404FF0500080F31188FFF7FD
:10446000E7F94FF0000080F31188BDE808401968B3
:104470000868B0E8F00F80F30988BFF36F8F7047CA
:10448000D006002008B54FF0500383F31188BFF326
:104490006F8FBFF34F8FFFF79DF828B14FF0E023E8
:1044A0004FF08052C3F8042D002383F3118808BD18
:1044B0004FF0E022002313619361054B1B6805490F
:1044C000A1FB03139B09013B536107231361704751
:1044D00008000020D34D621010B582B02A4B1A7824
:1044E000D2B20192FF221A701B78DBB28DF8033032
:1044F0009DF8033003F05003244A1370244B072225
:104500001A6009E0224A1368013B13609DF80330EA
:104510005B00DBB28DF803309DF8033013F0800FA1
:10452000F0D11B4B1B68032B08D04FF0500383F3D3
:104530001188BFF36F8FBFF34F8FFEE71B02144A42
:10454000136003F4E0631360019BDBB20E4A137047
:104550004FF0E023D3F8202D42F47002C3F8202D51
:10456000D3F8202D42F07042C3F8202DFFF7A0FFB2
:104570000024084B1C60FFF7EFFEFFF759F9FFF727
:10458000CBFE204602B010BD00E400E0D81A0020A7
:10459000D41A00200C000020EFF305830F2B0FD955
:1045A000114A9B5CDBB2114A12789A4208D94FF04B
:1045B000500383F31188BFF36F8FBFF34F8FFEE774
:1045C0004FF0E023D3F80C3D03F4E063084A12688F
:1045D000934208D94FF0500383F31188BFF36F8FD4
:1045E000BFF34F8FFEE77047F0E300E0D81A0020DA
:1045F000D41A002000B583B00A4B5A6942F0010278
:104600005A615B6903F001030193019B00220521BC
:104610000B20FDF713FE0B20FDF720FE03B05DF825
:1046200004FB00BF0010024008B5054B1860054BA5
:104630001868002302221946806801F01DFD08BD9C
:10464000DC1A00201C0000200138012809D810B510
:1046500014460A2392B204480068FEF7BBF82046CD
:1046600010BD4FF0FF307047DC1A0020022801D83F
:104670000020704708B501F055FE092303604FF094
:10468000FF3008BD08B501F04DFE092303604FF06F
:10469000FF3008BD08B548B94FF0FF330122084884
:1046A0000068FEF7F6F840B9012008BD01F03AFEB7
:1046B000092303604FF0FF30F7E70520F5E700BF5F
:1046C000DC1A002008B5022804D84FF400534B60D0
:1046D000002008BD01F026FE09230360F8E7034629
:1046E0000846DA68511CD96019698A4208D210B5A7
:1046F0001C6814B15968A04710BD9B689854FBE72B
:104700007047036803B170470369002BFBD08168D1
:104710000029F8D0C268934200D85A1E00238B5457
:10472000F1E70022026042608260C260026170476D
:1047300070B504460E46151E07DB2046FFF7F1FF55
:104740000EB1A6602561204670BD6FF00045F4E70C
:104750000146002008E000EB8000531C0B6013783A
:1047600003EB4003A3F130000A681378303BDBB25F
:10477000092BF0D970472DE9F047054688461446C5
:104780001F46DDF820A0D0F80C901AF0030F0ED1D0
:104790001646BE420BD220212846FFF7A0FF013665
:1047A000F7E7013C18F804102846FFF798FF002CA3
:1047B000F7D11AF0020F01D1BDE8F087EA68A2EB49
:1047C0000902BA42F8D220212846FFF788FFF5E710
:1047D000F0B583B096461F469DF82060099C0A9B61
:1047E0000B9D15F0020F1CD13BB115F0010F04D049
:1047F00017B915F00C0F00D0013B724604E04FF0E2
:10480000300C01F802C0013215F0010F09D09A42B4
:1048100007D21F2AF3D904E04FF0300C01F802C090
:104820000132A24201D21F2AF6D9082E20D042F22C
:10483000100C15EA0C0F10D015F4006F04D11AB14A
:10484000A2421AD09A4218D0102E23D0022E32D073
:104850001F2A08D830248C5401321F2A03D887B36A
:104860002D248C5401320095FFF785FF03B0F0BD75
:104870007245DCD925F01005D9E7724500D9013A17
:10488000002AE1D0102E01D0022EDDD17245DBD9F5
:10489000013AD9E715F0200405D11F2A03D878245E
:1048A0008C540132D4E7002CD0D01F2ACED8582403
:1048B0008C540132CCE71F2AD5D862248C540132A3
:1048C000C6E715F0040F03D02B248C540132CAE73D
:1048D00015F0080FC7D020248C540132C3E730B53F
:1048E0008DB01446129D8C46E1B915F4006F11D1BC
:1048F00030228DF8102025F0100501220395119922
:104900000291109901910093234604A9FFF760FFDB
:104910000DB030BD102B01D00A46EFE725F0100591
:104920000A46EBE74FF0000E10E03031C9B20EF14D
:1049300001020EF1300EEE440EF8201CBCFBF3F128
:104940006345DBD81F2AD9D896468C46BCFBF3F1C9
:1049500003FB11C1C9B20929E7D915F0200F05D011
:1049600041221144C9B20A39C9B2E0E76122F8E72D
:104970002DE9F04F85B0044616461F46DB0F037441
:1049800013B107F100431F463046394601F03EFEA1
:104990008146206003916160FBF748FD02460B46AB
:1049A00030463946FBF7B8FB3D4B0E9D03EBC50384
:1049B000D3E900AB52465B46FBF766FD02460B4669
:1049C000CDE9002301F022FE05468846A060E160A3
:1049D000FBF72CFD02460B46DDE90001FBF79CFBD3
:1049E00002460B46CDE9002300222E4BFBF7DCFFED
:1049F000002841D0681C48F10001A060E160FBF78D
:104A000015FD02460B4650465946FBF7B9FF50B11B
:104A100000220023C4E9022319F10103039A42F1A1
:104A20000002236062600E9B13BB2568D4F80480EB
:104A300028464146FBF7FAFC02460B46304639460B
:104A4000FBF76AFB06460F460022164BFBF78EFF6C
:104A500030B10022134B30463946FBF7A5FF38B181
:104A600015F0010F04D0013548F1000325606360A3
:104A7000204605B0BDE8F08F00220A4BDDE90001B9
:104A8000FBF76AFF0028CED055EA080302D015F0E4
:104A9000010FC8D0013548F10003A560E360C2E70B
:104AA000306700080000E03F82B008B50DF1080C47
:104AB0008CE80C009DF810304BB102460B46DDE946
:104AC0000201FBF7E1FCBDE8084002B07047DDE9F8
:104AD0000223FBF703FEF6E782B008B50DF1080CE0
:104AE0008CE80C009DF810303BB1DDE90223FBF7A8
:104AF000F5FDBDE8084002B0704702460B46DDE90F
:104B00000201FBF7C1FCF4E782B0D0B5044604A96A
:104B100081E80C00DDE908019DF8183073B101232C
:104B2000237202460B46DDE90401FBF7ADFCC4E944
:104B300000012046BDE8D04002B07047DDE90467BF
:104B4000C7F30A52A2F2FF32C1F30A53A3F2FF33B2
:104B5000002AB8BF5242002BB8BF5B429A420ADD1E
:104B60000023237202460B4630463946FBF7B6FD5A
:104B7000C4E90001DDE70123237232463B46FBF71F
:104B8000ADFDC4E90001D4E72DE9F04F93B08346B1
:104B90000D461446DDE91C678DF8401020AB93E804
:104BA00003008DE803001EAB0CCB30463946FFF7FF
:104BB0007BFF229BE31AB3F5997F00F3868001F017
:104BC00025FD069007910C900D91FBF72FFC804678
:104BD00089460DF1800A9AE803008DE803001EADB6
:104BE00095E80C0040464946FFF776FF02460B4623
:104BF00030463946FBF790FA06460F46384B03EB32
:104C0000C403D3E9008908ACCDE902899AE803001E
:104C10008DE8030095E80C002046FFF775FF0AAB0E
:104C200093E803008DE8030094E80C003046394611
:104C3000FFF73AFF04460D4601F0E8FC07460E4632
:104C40000E900F91FBF7F2FB02460B4620462946D9
:104C5000FBF762FA02460B46CDE904230124002546
:104C60000022204BFBF796FE00B92C463C1946EB80
:104C700005060E940F9600221A4BDDE90401FBF79E
:104C80006BFE10B124F001040E94DDE90E01FBF778
:104C9000CDFB42464B46FBF77DFE50B10022002380
:104CA000CDE90E23069B0133079A42F100020C93D3
:104CB0000D925C460CAD0FCD0FC495E8030084E85F
:104CC0000300584613B0BDE8F08F15B101F1004361
:104CD0001946009402460B465846FFF749FEF0E796
:104CE000306700080000E03F84B02DE9F04782B053
:104CF0000AAC84E80F00119E129B139C1499159A1C
:104D0000002E00F0928141F210072740B7F5805F36
:104D10007FD00C9801280D9870F10000C0F200813E
:104D20001F2A00F20681013E0C980D9F4FEAE77E94
:104D30000EF0030820F070454FEA107C4CEA071C87
:104D40002CF0704C654405EB17654544DFF858C3FB
:104D5000ACFB058929F0030808EB9908A5EB0805C9
:104D60002EF0030E7544B0EB050E67EBE5754FF0C2
:104D7000CC3808FB0EF80CFB0585AEFB0CECAC4404
:104D80004FEADC7515EB0E054CF1000C6D0845EA99
:104D9000CC7505EB850515EB050CB0EB0C0C551C23
:104DA0000CF1300C01F802C04FEAE77E0EF0030868
:104DB00020F0704C020F42EA071222F07042944435
:104DC0000CEB176CC444B84A29F0030808EB9908A7
:104DD000ACEB080C2EF0030EF444B0EB0C0067EBC8
:104DE000EC774FF0CC3C0CFB00FC02FB07C7A0FBB0
:104DF00002023A44D70F381842F10002400840EA54
:104E0000C27052100C900D92104300F00C812A4693
:104E100086E70C9801280D9870F10000FFF679AF35
:104E20000C9DDDF834C04FEAEC7808F0030925F05A
:104E3000704E280F40EA0C1020F0704086440EEBB4
:104E40001C6ECE449848A0FB0E9A2AF0030909EB89
:104E50009A09AEEB090E28F00308C644B5EB0E081C
:104E60006CEBEE7E4FF0CC3909FB08F900FB0E9E8F
:104E7000A8FB008070444FEAD07E1EEB080E40F184
:104E800000004FEA5E0E4EEAC07E40104FEA8009F5
:104E900049EA9E794FEA8E0818EB0E0E40EB0900A6
:104EA0001EEB0E0840EB0009B5EB08086CEB090996
:104EB00058EA09087FF42DAF013E4FEAEC7808F07C
:104EC000030925F0704E280F40EA0C1020F07040C6
:104ED00086440EEB1C6ECE4473482AF0030909EB9E
:104EE0009A09AEEB090E28F00308C644B5EB0E058F
:104EF0006CEBEE7C4FF0CC3E0EFB05FE00FB0CECA9
:104F0000A5FB005060444FEAD07C1CEB050540F146
:104F100000006D0845EAC07540100C950D907FE7C4
:104F2000B7F5805F7FF4FCAE0CE030208854013E82
:104F300001321F2A01D8002EF7D11F2A02D82E20B5
:104F4000885401321F2A7AD80A980B9DEF1707F070
:104F5000030E20F0704C060F46EA051626F0704648
:104F6000B4440CEB156CF4444F4EA6FB0CE828F04F
:104F7000030E0EEB980EACEB0E0C27F00307BC44AF
:104F8000B0EB0C0765EBEC7C4FF0CC3E0EFB07FE64
:104F900006FB0CECA7FB067EE6444FEADE7C1CEB2E
:104FA000070C4EF1000E4FEA5C0C4CEACE7C0CEB89
:104FB0008C0C1CEB0C06861B02F1010E30368E5455
:104FC000EE1706F0030720F0704C020F42EA0512BC
:104FD00022F0704294440CEB156CBC44324A28F029
:104FE000030707EB9807ACEB070C26F00306B44465
:104FF000B0EB0C0065EBEC754FF0CC3600FB06F621
:1050000002FB0565A0FB02022A44D50F281842F1D5
:105010000002400840EAC27052100A900B921043FE
:105020000CD072468EE72A4683E714F0100F89D021
:105030001F2A87D82E208854013283E7724604F055
:105040000300012810D01F2A05D89DF83800E0B1D0
:105050002D208854013200941098FFF78CFB02B089
:10506000BDE8F04704B0704753B19DF8380010B95F
:1050700014F00C0F04D0013B02E0302088540132C0
:105080009A42E0D21F2AF8D9DDE714F0040F03D0CA
:105090002B2088540132DEE714F0080FDBD02020EB
:1050A00088540132D7E700BFCDCCCCCC70B58EB0E0
:1050B0000546129E08AC00962046FFF759FC169B49
:1050C0000793159B0693149B0593139B04930396D8
:1050D00002950EAB13E903008DE8030094E80F007E
:1050E000FFF702FE0EB070BD70B504460D460022FB
:1050F0000023FBF74FFC68B920462946FBF75EFC0E
:105100000646FBF757F922462B46FBF725FC30B93C
:10511000013E04E020462946FBF750FC0646304697
:1051200070BD0000000000002DE9F047C1F30A5AED
:10513000AAF2FF3AC1F3130343F07F5141F4401147
:1051400000222F4BFAF7E8FF04460D4622A3D3E9CD
:105150000023FBF799F922A3D3E90023FAF7DEFF36
:105160008046894622462B4620462946FBF78CF985
:1051700006460F461CA3D3E90023FBF785F9024638
:105180000B4640464946FAF7C7FF80468946224605
:105190002B4630463946FBF777F915A3D3E90023B0
:1051A000FBF772F902460B4640464946FAF7B6FF4E
:1051B00004460D465046FBF7FDF80FA3D3E9002344
:1051C000FBF762F902460B4620462946FAF7A6FF8E
:1051D000BDE8F087AFF300805F436F63A787D23FDE
:1051E000FCB7608B288AC63F7E043F2FDFB4B83FF0
:1051F000FF0338B81BF6A53FFF799F501344D33FF8
:105200000000F83F0000000010F59A7F77D02DE9EC
:10521000F84FFBF7CFF804460D463BA3D3E9002334
:10522000FBF732F90022404BFAF778FFFFF75CFFFB
:10523000804637A3D3E9002320462946FBF724F90B
:1052400004460D464046FBF7B5F833A3D3E90023E7
:10525000FBF71AF902460B4620462946FAF75CFF8F
:1052600004460D4602460B46FBF70EF906460F466E
:1052700008F2FF334FF000084FEA035922462B464D
:1052800020462946FAF74AFF82468B4622462B469D
:1052900000204FF08041FAF73FFF04460D46002200
:1052A000224B30463946FBF719FA0022204BFAF719
:1052B00035FF02460B4630463946FBF70FFA00220F
:1052C0001C4BFAF72BFF02460B4630463946FBF7DC
:1052D00005FA02460B4620462946FAF71FFF02460A
:1052E0000B4650465946FBF7F9F90022124BFAF7E4
:1052F00015FF42464B46FBF7C7F8BDE8F88F08A1FB
:10530000D1E90001704700BF71A379094F930A40AA
:105310001655B5BBB16B0240EF39FAFE422EE63F9F
:10532000D2E81978D63007000000E03F00002C409A
:1053300000002440000018400000F03F2DE9F04F2D
:1053400097B0044692469B46209F229E00230A93D4
:105350005FEADB79CDF82C9002D00BF100439B463D
:105360000022002350465946FBF7F6FA002840D1A8
:1053700050465946FFF7D8FEFFF7B6FE0546FFF741
:1053800043FFCDE9080102460B4650465946FBF75C
:10539000EDFA40B1013D0022764BDDE90801FBF753
:1053A0009DF9CDE9080105F11103222B94BF0123DA
:1053B00000230A930AD885EAE572A2EBE5726E4BE8
:1053C00003EBC203D3E90023CDE90823DDE9082379
:1053D000CDE9122316F4805F2FD067B13B4615F15B
:1053E000040F0ADB9D4208DA013F7F1B4FF00108E2
:1053F00006E00025EEE70123F1E7013F4FF000084A
:1054000027EAE77746F40066002D19DB00238DF8C4
:105410005030B8F1000F18D1BDB106950DF1080C50
:1054200016AB13E90F008CE80F00CDE900AB3A464C
:105430000B990CA8FFF7A8FB13E04FF00008E3E777
:105440000A9B002BE3D00123E1E7B9F1000F02D062
:105450000BF100439B46009752465B460CA8FFF7B2
:1054600087FAB8F1000F16D016F4805F22D0B5F19C
:10547000FF3F1FDBDDE90C01FAF7D8FF05F1010959
:105480003D4B03EBC903D3E90023FBF765FA88B171
:10549000013F4D460EE00C9B0A2B0D9B73F1000360
:1054A00008DB013501220023CDE90C230022002373
:1054B000CDE90E23B8F1000F06D105F16303C62B29
:1054C00042D84FF0040901E04FF0000916F0020B3A
:1054D00002D0B9F1000F3AD1219B994539D2A3EB03
:1054E0000903D4F80CA0249A0792239A06920596F1
:1054F00004930397029410AB93E803008DE8030034
:105500000CAB0FCBFFF7F0FBB8F1000F19D116F081
:10551000200F20D045212046FFF7E1F80523029314
:1055200009F1FF330193002300930A23EA0F85EA70
:10553000E571A1EBE5712046FFF7D1F9BBF1000F52
:1055400015D117B0BDE8F08F4FF00509BEE7002375
:10555000C7E70023C5E76521DDE720212046FFF7E7
:10556000BEF8E368A3EB0A03AB42F6D3E9E7219D5B
:10557000F7E700BF0000244030670008000000008B
:105580002DE9F0438FB0054616461F46169CDDF800
:1055900060809DF8649010461946FBF7DDF90028FD
:1055A00038D04FF0FF326FF4801330463946FBF7A6
:1055B000DDF9002837D14FF0FF32454B30463946F0
:1055C000FBF7F2F9002837D1B9F1000F10D13CA355
:1055D000D3E9002330463946FBF7E6F900283ED1EF
:1055E00039A3D3E9002330463946FBF7BFF9B0BBF6
:1055F00018F4006F42D000231F2B41D8112C3FD943
:1056000003F138020DEB0201302201F8202C013C9D
:105610000133F1E7CDF80080179B03222D4928467E
:10562000FFF7A9F814E0CDF80080179B04222A495F
:105630002846FFF7A0F80BE018F004030BD0274929
:105640005BB10422CDF80080179B2846FFF793F842
:105650000FB0BDE8F0832249F2E70322F2E700230E
:10566000049306AB0393CDF80880179B0193009435
:1056700032463B462846FFF761FEE9E70524BAE7D4
:10568000B9F1000F0DD0049306AB0393CDF8088059
:10569000179B0193009432463B462846FFF74EFE87
:1056A000D6E7049306AB0393CDF80880179B0193CC
:1056B000009432463B462846FFF7F8FCC8E700BF97
:1056C0000000000065CDCD410000000065CDCDC1DA
:1056D000FFFFEF7F106700081467000804670008E9
:1056E0000C670008014600200A681378203B102B45
:1056F00023D8DFE803F01822221D222222222222B0
:105700002213220E2222090040F0010001320A6019
:10571000EAE740F0020001320A60E5E740F00400E9
:1057200001320A60E0E740F0080001320A60DBE77E
:1057300040F0100001320A60D6E770472DE9F04FC3
:1057400087B005460591049205E02846FEF7C7FF9D
:10575000059B01330593059B1978002944D0252921
:10576000F3D15A1C05925B78002B3DD005A8FFF7BA
:10577000B9FF0446059B1A78A2F13003DBB2092B6E
:1057800021D92A2A24D00027059B1A782E2A32D024
:105790000026059A1378683B122B79D8DFE813F0BE
:1057A0005F007800D50078004D0078007800780020
:1057B0007800780078007800710078007800780030
:1057C00078007800DD0005A8FEF7C2FF0746DBE79A
:1057D000049B1A1D04921F68002F08DB059B5A1CAE
:1057E00005925B78002BCFD107B0BDE8F08F40F079
:1057F00002047F42F2E744F400645A1C05925A788E
:10580000002AF1D0A2F13003DBB2092B03D92A2AF6
:1058100006D00026BDE705A8FEF79AFF0646B8E7C2
:10582000049B1A1D04921E6826EAE676059B5A1C04
:1058300005925B78002BACD1D6E744F40071531C81
:1058400005935378002BCFD06C2B01D00C461FE072
:1058500044F4C064931C05939378CBB9C4E744F037
:105860008001531C05935378002BBDD0682B01D0C9
:105870000C460DE044F0C004931C059393783BB9AB
:10588000B2E744F40074531C05935378002BABD05B
:10589000059A1178A1F12503532B00F2F681DFE878
:1058A00013F0C301F401F401F401F401F401F40173
:1058B000F401F401F401F401F401F401F401F40140
:1058C000F401F401F401F401F401F401F401F40130
:1058D000F401F401F401F401F401F401F401F40120
:1058E000F4010E01F4000E01F401F401F401F401DD
:1058F000F401F401F401F401F401F401F401F40100
:10590000F401F401F401F4016400F401F401F40180
:10591000F401F401F401F401F401F40164002F0135
:1059200064000E01F4000E01F4016400F401F401BE
:10593000F401F401CB016400A501F401F401530169
:10594000F4016400F401F401640044F48064531C25
:1059500005935378002B9BD146E744F40074531C05
:1059600005935378002B93D13EE7642901D0692930
:1059700001D144F48044782909D062292ED06F29BE
:105980002ED058292ED024F010040A2300E0102332
:10599000582929D00132059214F4006F01D024F067
:1059A000010414F4804F3FD014F4806F7FF4D3AE21
:1059B00014F4007F1BD114F0400F27D0049A111D5E
:1059C000049192F90010029401970096CA0F0029E1
:1059D000B8BF49422846FEF782FFBCE60223D7E75C
:1059E0000823D5E71023D3E744F02004D2E7049A34
:1059F000111D04911168029401970096CA0F0029A5
:105A0000B8BF49422846FEF76AFFA4E614F0800FAB
:105A100005D0049A111D0491B2F90010D3E7049A3D
:105A2000111D04911168CEE724F00C0214F4806F6C
:105A30007FF491AE14F4007F0ED114F0400F17D014
:105A40000499081D0490097802920197009600229B
:105A50002846FEF744FF7EE60499081D0490096875
:105A600002920197009600222846FEF738FF72E660
:105A700014F0800F04D00499081D04900988E3E70E
:105A80000499081D04900968DEE7462914D0049B98
:105A9000073323F0070303F108020492D3E900233C
:105AA000002103910294019700962846FFF768FDB4
:105AB000059B013305934EE644F02004E7E7672990
:105AC00001D0472901D144F48054452901D0472908
:105AD00001D144F02004049B073323F0070303F1B2
